{
  "contractName": "MedicalRecord",
  "abi": [
    {
      "inputs": [
        {
          "internalType": "address",
          "name": "_owner",
          "type": "address"
        }
      ],
      "stateMutability": "nonpayable",
      "type": "constructor"
    },
    {
      "inputs": [
        {
          "internalType": "address",
          "name": "_drId",
          "type": "address"
        },
        {
          "internalType": "string",
          "name": "_recordHash",
          "type": "string"
        }
      ],
      "name": "addInitialAnalysis",
      "outputs": [],
      "stateMutability": "nonpayable",
      "type": "function"
    },
    {
      "inputs": [],
      "name": "getInitialAnalysis",
      "outputs": [
        {
          "components": [
            {
              "internalType": "uint256",
              "name": "mid",
              "type": "uint256"
            },
            {
              "internalType": "address",
              "name": "drId",
              "type": "address"
            },
            {
              "internalType": "string",
              "name": "recordHash",
              "type": "string"
            },
            {
              "internalType": "uint256",
              "name": "date",
              "type": "uint256"
            },
            {
              "internalType": "bool",
              "name": "mileStone",
              "type": "bool"
            },
            {
              "internalType": "uint256",
              "name": "tokenId",
              "type": "uint256"
            }
          ],
          "internalType": "struct MedicalRecord.Record",
          "name": "",
          "type": "tuple"
        }
      ],
      "stateMutability": "view",
      "type": "function"
    },
    {
      "inputs": [
        {
          "internalType": "address",
          "name": "_drId",
          "type": "address"
        },
        {
          "internalType": "string",
          "name": "_recordHash",
          "type": "string"
        }
      ],
      "name": "addRecord",
      "outputs": [],
      "stateMutability": "nonpayable",
      "type": "function"
    },
    {
      "inputs": [],
      "name": "viewRecords",
      "outputs": [
        {
          "components": [
            {
              "internalType": "uint256",
              "name": "mid",
              "type": "uint256"
            },
            {
              "internalType": "address",
              "name": "drId",
              "type": "address"
            },
            {
              "internalType": "string",
              "name": "recordHash",
              "type": "string"
            },
            {
              "internalType": "uint256",
              "name": "date",
              "type": "uint256"
            },
            {
              "internalType": "bool",
              "name": "mileStone",
              "type": "bool"
            },
            {
              "internalType": "uint256",
              "name": "tokenId",
              "type": "uint256"
            }
          ],
          "internalType": "struct MedicalRecord.Record[]",
          "name": "",
          "type": "tuple[]"
        }
      ],
      "stateMutability": "view",
      "type": "function"
    },
    {
      "inputs": [
        {
          "internalType": "address",
          "name": "_doc",
          "type": "address"
        }
      ],
      "name": "giveAccessToDoc",
      "outputs": [],
      "stateMutability": "nonpayable",
      "type": "function"
    },
    {
      "inputs": [
        {
          "internalType": "address",
          "name": "_doc",
          "type": "address"
        }
      ],
      "name": "revokeAccessToDoc",
      "outputs": [],
      "stateMutability": "nonpayable",
      "type": "function"
    },
    {
      "inputs": [
        {
          "internalType": "address",
          "name": "_doc",
          "type": "address"
        }
      ],
      "name": "checkDocAccess",
      "outputs": [
        {
          "internalType": "bool",
          "name": "",
          "type": "bool"
        }
      ],
      "stateMutability": "view",
      "type": "function"
    }
  ],
  "bytecode": "0x60806040523480156200001157600080fd5b5060405162001329380380620013298339818101604052810190620000379190620000f1565b80600260006101000a81548173ffffffffffffffffffffffffffffffffffffffff021916908373ffffffffffffffffffffffffffffffffffffffff16021790555060006009819055505062000123565b600080fd5b600073ffffffffffffffffffffffffffffffffffffffff82169050919050565b6000620000b9826200008c565b9050919050565b620000cb81620000ac565b8114620000d757600080fd5b50565b600081519050620000eb81620000c0565b92915050565b6000602082840312156200010a576200010962000087565b5b60006200011a84828501620000da565b91505092915050565b6111f680620001336000396000f3fe608060405234801561001057600080fd5b506004361061007d5760003560e01c80639961a5b71161005b5780639961a5b7146100da578063a271d789146100f6578063a709f40f14610112578063bfa417a5146101425761007d565b80633aa2a53e1461008257806366858ec8146100a057806370c10445146100bc575b600080fd5b61008a61015e565b6040516100979190610a08565b60405180910390f35b6100ba60048036038101906100b59190610b9f565b610299565b005b6100c461043c565b6040516100d19190610d46565b60405180910390f35b6100f460048036038101906100ef9190610b9f565b61061c565b005b610110600480360381019061010b9190610d68565b610721565b005b61012c60048036038101906101279190610d68565b61077c565b6040516101399190610da4565b60405180910390f35b61015c60048036038101906101579190610d68565b6107d2565b005b61016661082c565b60036040518060c0016040529081600082015481526020016001820160009054906101000a900473ffffffffffffffffffffffffffffffffffffffff1673ffffffffffffffffffffffffffffffffffffffff1673ffffffffffffffffffffffffffffffffffffffff1681526020016002820180546101e390610dee565b80601f016020809104026020016040519081016040528092919081815260200182805461020f90610dee565b801561025c5780601f106102315761010080835404028352916020019161025c565b820191906000526020600020905b81548152906001019060200180831161023f57829003601f168201915b50505050508152602001600382015481526020016004820160009054906101000a900460ff16151515158152602001600582015481525050905090565b600160003373ffffffffffffffffffffffffffffffffffffffff1673ffffffffffffffffffffffffffffffffffffffff16815260200190815260200160002060009054906101000a900460ff16610325576040517f08c379a000000000000000000000000000000000000000000000000000000000815260040161031c90610e7c565b60405180910390fd5b6040518060c0016040528060095481526020018373ffffffffffffffffffffffffffffffffffffffff168152602001828152602001428152602001600015158152602001600081525060008060095481526020019081526020016000206000820151816000015560208201518160010160006101000a81548173ffffffffffffffffffffffffffffffffffffffff021916908373ffffffffffffffffffffffffffffffffffffffff16021790555060408201518160020190816103e89190611048565b506060820151816003015560808201518160040160006101000a81548160ff02191690831515021790555060a082015181600501559050506009600081548092919061043390611149565b91905055505050565b6060600060095467ffffffffffffffff81111561045c5761045b610a74565b5b60405190808252806020026020018201604052801561049557816020015b61048261082c565b81526020019060019003908161047a5790505b50905060005b600954811015610614576000808281526020019081526020016000206040518060c0016040529081600082015481526020016001820160009054906101000a900473ffffffffffffffffffffffffffffffffffffffff1673ffffffffffffffffffffffffffffffffffffffff1673ffffffffffffffffffffffffffffffffffffffff16815260200160028201805461053290610dee565b80601f016020809104026020016040519081016040528092919081815260200182805461055e90610dee565b80156105ab5780601f10610580576101008083540402835291602001916105ab565b820191906000526020600020905b81548152906001019060200180831161058e57829003601f168201915b50505050508152602001600382015481526020016004820160009054906101000a900460ff161515151581526020016005820154815250508282815181106105f6576105f5611191565b5b6020026020010181905250808061060c90611149565b91505061049b565b508091505090565b6040518060c0016040528060095481526020018373ffffffffffffffffffffffffffffffffffffffff168152602001828152602001428152602001600015158152602001600081525060036000820151816000015560208201518160010160006101000a81548173ffffffffffffffffffffffffffffffffffffffff021916908373ffffffffffffffffffffffffffffffffffffffff16021790555060408201518160020190816106cd9190611048565b506060820151816003015560808201518160040160006101000a81548160ff02191690831515021790555060a082015181600501559050506009600081548092919061071890611149565b91905055505050565b6000600160008373ffffffffffffffffffffffffffffffffffffffff1673ffffffffffffffffffffffffffffffffffffffff16815260200190815260200160002060006101000a81548160ff02191690831515021790555050565b6000600160008373ffffffffffffffffffffffffffffffffffffffff1673ffffffffffffffffffffffffffffffffffffffff16815260200190815260200160002060009054906101000a900460ff169050919050565b60018060008373ffffffffffffffffffffffffffffffffffffffff1673ffffffffffffffffffffffffffffffffffffffff16815260200190815260200160002060006101000a81548160ff02191690831515021790555050565b6040518060c0016040528060008152602001600073ffffffffffffffffffffffffffffffffffffffff1681526020016060815260200160008152602001600015158152602001600081525090565b6000819050919050565b61088d8161087a565b82525050565b600073ffffffffffffffffffffffffffffffffffffffff82169050919050565b60006108be82610893565b9050919050565b6108ce816108b3565b82525050565b600081519050919050565b600082825260208201905092915050565b60005b8381101561090e5780820151818401526020810190506108f3565b60008484015250505050565b6000601f19601f8301169050919050565b6000610936826108d4565b61094081856108df565b93506109508185602086016108f0565b6109598161091a565b840191505092915050565b60008115159050919050565b61097981610964565b82525050565b600060c0830160008301516109976000860182610884565b5060208301516109aa60208601826108c5565b50604083015184820360408601526109c2828261092b565b91505060608301516109d76060860182610884565b5060808301516109ea6080860182610970565b5060a08301516109fd60a0860182610884565b508091505092915050565b60006020820190508181036000830152610a22818461097f565b905092915050565b6000604051905090565b600080fd5b600080fd5b610a47816108b3565b8114610a5257600080fd5b50565b600081359050610a6481610a3e565b92915050565b600080fd5b600080fd5b7f4e487b7100000000000000000000000000000000000000000000000000000000600052604160045260246000fd5b610aac8261091a565b810181811067ffffffffffffffff82111715610acb57610aca610a74565b5b80604052505050565b6000610ade610a2a565b9050610aea8282610aa3565b919050565b600067ffffffffffffffff821115610b0a57610b09610a74565b5b610b138261091a565b9050602081019050919050565b82818337600083830152505050565b6000610b42610b3d84610aef565b610ad4565b905082815260208101848484011115610b5e57610b5d610a6f565b5b610b69848285610b20565b509392505050565b600082601f830112610b8657610b85610a6a565b5b8135610b96848260208601610b2f565b91505092915050565b60008060408385031215610bb657610bb5610a34565b5b6000610bc485828601610a55565b925050602083013567ffffffffffffffff811115610be557610be4610a39565b5b610bf185828601610b71565b9150509250929050565b600081519050919050565b600082825260208201905092915050565b6000819050602082019050919050565b600060c083016000830151610c3f6000860182610884565b506020830151610c5260208601826108c5565b5060408301518482036040860152610c6a828261092b565b9150506060830151610c7f6060860182610884565b506080830151610c926080860182610970565b5060a0830151610ca560a0860182610884565b508091505092915050565b6000610cbc8383610c27565b905092915050565b6000602082019050919050565b6000610cdc82610bfb565b610ce68185610c06565b935083602082028501610cf885610c17565b8060005b85811015610d345784840389528151610d158582610cb0565b9450610d2083610cc4565b925060208a01995050600181019050610cfc565b50829750879550505050505092915050565b60006020820190508181036000830152610d608184610cd1565b905092915050565b600060208284031215610d7e57610d7d610a34565b5b6000610d8c84828501610a55565b91505092915050565b610d9e81610964565b82525050565b6000602082019050610db96000830184610d95565b92915050565b7f4e487b7100000000000000000000000000000000000000000000000000000000600052602260045260246000fd5b60006002820490506001821680610e0657607f821691505b602082108103610e1957610e18610dbf565b5b50919050565b600082825260208201905092915050565b7f4e6f20656469742061636365737320746f2074686973207265636f7264000000600082015250565b6000610e66601d83610e1f565b9150610e7182610e30565b602082019050919050565b60006020820190508181036000830152610e9581610e59565b9050919050565b60008190508160005260206000209050919050565b60006020601f8301049050919050565b600082821b905092915050565b600060088302610efe7fffffffffffffffffffffffffffffffffffffffffffffffffffffffffffffffff82610ec1565b610f088683610ec1565b95508019841693508086168417925050509392505050565b6000819050919050565b6000610f45610f40610f3b8461087a565b610f20565b61087a565b9050919050565b6000819050919050565b610f5f83610f2a565b610f73610f6b82610f4c565b848454610ece565b825550505050565b600090565b610f88610f7b565b610f93818484610f56565b505050565b5b81811015610fb757610fac600082610f80565b600181019050610f99565b5050565b601f821115610ffc57610fcd81610e9c565b610fd684610eb1565b81016020851015610fe5578190505b610ff9610ff185610eb1565b830182610f98565b50505b505050565b600082821c905092915050565b600061101f60001984600802611001565b1980831691505092915050565b6000611038838361100e565b9150826002028217905092915050565b611051826108d4565b67ffffffffffffffff81111561106a57611069610a74565b5b6110748254610dee565b61107f828285610fbb565b600060209050601f8311600181146110b257600084156110a0578287015190505b6110aa858261102c565b865550611112565b601f1984166110c086610e9c565b60005b828110156110e8578489015182556001820191506020850194506020810190506110c3565b868310156111055784890151611101601f89168261100e565b8355505b6001600288020188555050505b505050505050565b7f4e487b7100000000000000000000000000000000000000000000000000000000600052601160045260246000fd5b60006111548261087a565b91507fffffffffffffffffffffffffffffffffffffffffffffffffffffffffffffffff82036111865761118561111a565b5b600182019050919050565b7f4e487b7100000000000000000000000000000000000000000000000000000000600052603260045260246000fdfea2646970667358221220a368755166ad4dc6224d55505fe932035a57602f44c23bb9976f911f0ed515cb64736f6c63430008110033",
  "immutableReferences": {},
  "source": "// SPDX-License-Identifier: MIT\r\npragma solidity >=0.4.22 <0.9.0;\r\n\r\ncontract MedicalRecord {\r\n\r\n  struct Record {\r\n    uint mid;\r\n    address drId;\r\n    string recordHash;\r\n    uint256 date;\r\n    bool mileStone;\r\n    uint tokenId;\r\n  }\r\n\r\n  mapping(uint => Record) private mrMapping;\r\n  mapping(address => bool) private hasAccess;\r\n\r\n  address private owner;\r\n  Record private initialAnalysis;\r\n\r\n  uint private mId;\r\n\r\n  constructor(address _owner){\r\n    owner = _owner;\r\n    mId = 0;\r\n  }\r\n\r\n  function addInitialAnalysis(address _drId, string memory _recordHash) public {\r\n    initialAnalysis = Record({mid: mId, drId: _drId, recordHash: _recordHash, date: block.timestamp, tokenId: 0, mileStone: false});\r\n    mId++;\r\n  }\r\n\r\n  function getInitialAnalysis() public view returns (Record memory) {\r\n    return initialAnalysis;\r\n  }\r\n\r\n  function addRecord(address _drId, string memory _recordHash) public {\r\n    require(hasAccess[msg.sender], \"No edit access to this record\");\r\n    mrMapping[mId] = Record({mid: mId, drId: _drId, recordHash: _recordHash, date: block.timestamp, tokenId: 0, mileStone: false});\r\n    mId++;\r\n  }\r\n\r\n  function viewRecords() public view returns (Record[] memory) {\r\n    Record[] memory records = new Record[](mId);\r\n//    if (mId > 1)\r\n    for (uint i = 0; i < mId; i++) {\r\n      records[i] = mrMapping[i];\r\n    }\r\n    return records;\r\n  }\r\n\r\n//  give Access\r\n\r\n  function giveAccessToDoc(address _doc) public {\r\n    hasAccess[_doc] = true;\r\n  }\r\n\r\n  function revokeAccessToDoc(address _doc) public {\r\n    hasAccess[_doc] = false;\r\n  }\r\n\r\n  function checkDocAccess(address _doc) public view returns (bool)  {\r\n    return hasAccess[_doc];\r\n  }\r\n\r\n}\r\n",
  "sourcePath": "/Users/soumyasambitmishra/Downloads/EHR NFT v.0.6.1/contracts/MedicalRecord.sol",
  "compiler": {
    "name": "solc",
    "version": "0.8.17+commit.8df45f5f.Emscripten.clang"
  },
  "schemaVersion": "3.4.16",
  "updatedAt": "2024-10-26T18:39:32.464Z",
  "devdoc": {
    "kind": "dev",
    "methods": {},
    "version": 1
  },
  "userdoc": {
    "kind": "user",
    "methods": {},
    "version": 1
  }
}